:100000006AC01CC284C083C082C081C080C07FC05F
:100010007EC07DC07CC07BC07AC079C078C0180328
:100020005000450050005000450052002D004D008A
:1000300049004400490024036B007500770061000B
:1000400074006100790040006E0069006600740071
:1000500079002E0063006F006D000403090409029B
:100060006500020100803209040000000101000067
:100070000924010001090001010904010002010332
:1000800000000724010001410006240201010006CE
:1000900024020202000924030103010201000924D1
:1000A000030204010101000905010308000A000020
:1000B00005250101010905810308000A0000052545
:1000C0000101031201100100000008C016E405013F
:1000D00000010200010011241FBECFE5D1E0DEBF08
:1000E000CDBF10E0A0E6B0E0EAE8FAE003C0C895B2
:1000F00031960D92A436B107D1F710E0A4E6B0E036
:1001000001C01D92AB3AB107E1F75AD4BDC478CF14
:10011000CF93B92FA82FC62F809160008E31F1F0B8
:100120008091600084FF07C08091720098E8892761
:100130008093720003C08AE580936000E3E7F0E0FB
:100140009C2F91509F3F19F08D918193FACF6C2F86
:1001500083E790E05CD1CC5FC0936000CF910895BD
:100160001F93CF93DF936091820016160CF0BBC0F3
:1001700080917F00C2E9D0E0C81BD109635030E014
:1001800010E880917E00803120F48C2F9D2FC8D301
:10019000A8C08D3209F08EC04AE5409361006830F6
:1001A00009F09BC02881822F807609F070C0E0E7BB
:1001B000F0E0309370009981992389F42F712230F7
:1001C00059F48C81813841F4932F809160008E31F5
:1001D00009F491E090937000118232E01BC09530D9
:1001E00021F48A81809383005DC0963021F510EC64
:1001F0008B81813011F0823021F48C2F9D2F7ED2A3
:1002000049C0833009F04EC08A81882341F4EAE571
:10021000F0E034E0F0938100E093800043C081304F
:1002200021F4E6E3F0E034E2F5CF8230D9F5EEE1F7
:10023000F0E038E1EFCF983019F4E5E8F0E008C0DD
:10024000993021F48A818093850009C09A3011F495
:1002500031E0E0CF9B3031F48BE480937200409327
:10026000600020C0913011F09330E1F48A8188233E
:10027000C9F48C818138B1F4913011F48AE501C060
:100280008EE1809360008BE4809372000BC08C2F12
:100290009D2F4BD2382F8F3F29F4888187FD3E81D7
:1002A0001F771BC08F818823C1F48E818317A8F428
:1002B000382F13C08091650087FD0FC08C2F9D2FB4
:1002C00051D23FEF831731F4309362008EE1809377
:1002D000610002C0811130E010E01093650030939E
:1002E0006200109282008091610084FF51C0809171
:1002F00062008F3F09F44CC0682F893008F068E035
:10030000861B809362001BE48091650080FD13ECE6
:100310008F5F80936500A8E6B0E087FF1CC0E09186
:100320008000F0918100962F915086FF08C09F3F7A
:1003300061F0C895802D8D9331969150F8CF9F3FF5
:1003400021F081918D939150FACFF0938100E09349
:10035000800077270AC0662331F08A2F9B2FF6D1C1
:10036000682F772702C060E070E0C62F693040F444
:1003700088E690E04CD09C2F9C5FC83028F401C0E8
:100380009EE18FEF8093620010936700909361006D
:100390009AE086B3867011F49150D9F7992339F415
:1003A0009093830090937D008AE580936000C0E085
:1003B000992309F4C1E0809164008C1729F0CC23C3
:1003C00009F4B4D2C0936400DF91CF911F910895D6
:1003D00085B7836085BF8BB780648BBF8BE48093C8
:1003E00072000895A82FB92F80E090E041E050EA14
:1003F00060956F5F58F42D9138EF82279795879518
:1004000010F0842795273F5FC8F3F3CF0895EADF04
:100410008D939D930895A6E088279927AA9569F062
:100420000197E1F3B199FCCFB19BFECF81E0992711
:10043000A6B3019611F0A670D9F70895CF93CFB760
:10044000CF93B19BFECFB19B0BC0B19B09C0B19BB9
:1004500007C0B19B05C0B19B03C0B19B01C0D8C010
:100460000F92DF93C0917F00DD27CA57DF4F012E27
:10047000B19B03C0DF910F90E6CF2F930F931F9393
:100480004F932FEF4F6F06B301FB20F95F933F931C
:1004900050E03BE065C016B30126502951FDC895D8
:1004A00056B3012701FB25F92F7306B3B1F050278E
:1004B000102711FB26F906B22230F0F000C016B367
:1004C000012701FB27F90126502906B22430E8F55F
:1004D0004F77206816B30000F6CF50274F7D20627B
:1004E00006B2102F000000C006B3002650291027C6
:1004F00011FB26F906B2E2CF4F7B06B3206400C0A1
:10050000DACF01265029167006B269F14E7F2160BC
:10051000012F16B328C0002650294D7F06B2226055
:10052000102F29C0012650294B7F06B22460012FCD
:100530002DC016B301265029477F2860000006B25F
:100540002EC04F7E06B3206130C0422706B34993C8
:1005500000265029102706B24FEF11FB20F9297F02
:1005600016B379F2167059F10126502906B2012707
:1005700001FB21F9237F06B371F200265029315087
:10058000D0F006B2102711FB22F9277E16B351F2E4
:1005900001265029012701FB06B223F92F7C49F2DD
:1005A000000006B3102711FB24F90026502906B2DB
:1005B0002F7939F270CF10E41ABF00271CC03B50CE
:1005C0003195C31BD04010E41ABF0881033C21F1D0
:1005D0000B3411F120917D001981110F1213EDCF11
:1005E0004A81441F093669F10D3211F0013E29F7A5
:1005F0004F7009F0042F009384003F915F914F9159
:100600001F910F912F91DF910F90CAB7C6FD19CF9F
:10061000CF91CFBFCF91189500918400002369F34B
:1006200010918200112379F534307AF130938200F1
:1006300000937E0010917F003BE0311B30937F00E0
:1006400024C0009182000130F4F40AE54F7049F4AF
:100650003091610034FD1AC000936100C7E6D0E01C
:1006600019C03091600034FD11C000936000C2E7F2
:10067000D0E010C0052710E000C021C0052710E021
:10068000C89508BB14C03AE501C032ED032EC0E0A6
:10069000D0E032E017B31660C19A08B317BB56E03A
:1006A00020E84FEF20FF052708BB279517951C3F33
:1006B00028F700004552B0F720FF0527279508BB13
:1006C00017951C3FB8F629913A9561F7097F10916B
:1006D0008300110F08BBC250D04011F010937D0071
:1006E00010E41ABF026017B3197F402F497F54E00E
:1006F0005A95F1F708BB17BB48BB7FCFF92FE82FFE
:100700008381813049F483EC90E090938100809361
:10071000800082E190E008958EE590E09093810062
:100720008093800085E690E00895F92FE82FE0811E
:100730008E2F992780769070809729F4E7FD03C06B
:1007400081E0809366008FEF90E00895F92FE82F05
:10075000108211821282138214821582168287E01F
:1007600090E0089588B390E1892788BB81E090E00C
:100770000895883110F488E103C0853508F084E5D8
:100780008093A700282F3327532F422F440F551F44
:10079000420F531F952F842F8854904097FF04C019
:1007A000952F842F8554904095958795959587959D
:1007B000982F83E0220F331F8A95E1F78091A600DE
:1007C00086958695280F311D290F311D28503F4FE2
:1007D0003093A9002093A8000895382F40E0242FDB
:1007E0009091AA00491740F4ECE9F0E08191831759
:1007F00071F12F5F2917D0F3983059F4ECE9F0E04C
:1008000026E081818193215027FFFBCF3093A30005
:1008100008C0E92FFF27E456FF4F30839F5F909376
:10082000AA0020E09091AA00291748F4ECE9F0E032
:100830008191481708F4482F2F5F2917C8F3842F98
:1008400098DF81E08093A40084E68093A50008955A
:10085000582F40E0942F242F3091AA004317B0F472
:10086000ECE9F0E0992319F0808182933196808140
:10087000851709F491E02F5F3196231798F3992398
:1008800029F08091AA0081508093AA009091AA003B
:10089000992319F49093A400089520E0291748F4AF
:1008A000ECE9F0E08191481708F4482F2F5F2917F1
:1008B000C8F3842F5EDF08951F93CF93DF93D92F62
:1008C000C82F162F98819F7089818F702A81882365
:1008D00019F5892F99278930910549F08A309105BA
:1008E0001CF4089739F013C00E9751F010C08B819B
:1008F000882319F4822FACDF0AC0822F6EDF07C075
:100900008B818F778093A6008091A70032DF15300E
:1009100018F024961450D6CFDF91CF911F910895EF
:1009200038B348E0342738BBC7DF0895EF92FF9211
:100930000F931F93CF9310E800E0C02FC10FC1BFEA
:100940006ADD29E0843392070CF40C2F1695A9F781
:10095000C02FE82EF92EC150C1BFCF5F81B7282F1D
:1009600033270C2F1127912F802F01968217930781
:10097000ACF051DD8453994097FF03C09095819569
:100980009F4F8E159F051CF4E82EF92EC1B781B735
:100990008F5F81BF81B7282F3327E5CFC1BF81B7D4
:1009A000E199FECF1CBA1EBA8DBB0FB6F894E29A3D
:1009B000E19A0FBECF911F910F91FF90EF90089594
:1009C000CFE5D1E0DEBFCDBFE199FECF1EBAE09A00
:1009D0008DB3282F33272F3F09F021BFB99AE3EBBE
:1009E000F1EF23E18E2F9F2F0197F1F7215027FF81
:1009F000F9CF80E48093A6001092AA001092A9007B
:100A00001092A8001092A4001092A5001092A700C6
:100A100088E190E02EE00FB6F894A89581BD0FBE56
:100A200021BD89EF88BB86E087BBCFEF80E0815096
:100A3000F1F7C150D9F7C7BBCBDC87B3896187BB5E
:100A400083E88ABD81E083BFC9BDC0936600789406
:100A5000A89586DB809160009091A500992331F0E4
:100A60008FEF89BD980F9093A500F2CF8091A400DD
:100A7000882341F08091A8009091A90096958795D0
:0A0A80009695879589BDE4CFFFCF5E
:040A8A005A5AFF00B5
:00000001FF
