S0150000313270776D736F6674776172652E73726563ED
S113000019C028C027C026C025C024C023C022C0D0
S113001021C020C01FC01EC01DC01CC01CC01AC0EF
S113002019C018C017C016C015C014C013C012C020
S113003011C010C011241FBECFEFD2E0DEBFCDBF70
S113004021E0A0E0B1E001C01D92A430B207E1F7C5
S113005027D048C0D5CF1F920F920FB60F9211240C
S11300608F939F93AF93BF9380910001909101016F
S1130070A0910201B09103010196A11DB11D8093CD
S1130080000190930101A0930201B0930301BF9179
S1130090AF919F918F910F900FBE0F901F90189565
S11300A084B5806884BD85B5896185BDEEE6F0E0E0
S11300B08081826080837894809100019091010115
S11300C0A0910201B0910301813A9648A140B10583
S11300D098F3109200011092010110920201109203
S10B00E00301EACFF894FFCFFD
S9030000FC
