:100000000C94C8000C947F020C94E5000C94E5005D
:100010000C94E5000C94E5000C94E5000C94E500CC
:100020000C94E5000C94E5000C94E5000C94E500BC
:100030000C94E5000C9435050C94E5000C94E50057
:100040000C94E5000C94E5000C94E5000C94E5009C
:100050000C94E5000C94F0040C94E5000C94E5007D
:100060000C94E5000C94E5000C94E5000C94E5007C
:100070000C94E5000C9474040C94E5000C94E500D9
:100080000C94E5000C94E5000C94E5000C94E5005C
:100090000C94E5000C94E5000C94E5000C94E5004C
:1000A0000C94E5000C94E5000C94E5000C94E5003C
:1000B0000C94E5000C94E5000C94E5000C94E5002C
:1000C0000C94E5000C94E5000C94E5000C94E5001C
:1000D0000C94E5000C94E5000C94E5000C94E5000C
:1000E0000C94E50004030904240377006F007200F8
:1000F0006B0069006E00700072006F006700720094
:100100006500730073002E00630061000C0365003E
:100110006200610072006E00120110010000000810
:10012000C016E40501000102000109026500020198
:100130000000FA0904000000010100000924010088
:100140000109000101090401000201030000072464
:1001500001000141000624020101000624020202FE
:100160000009240301030102010009240302040120
:100170000101000905010308000A0000052501012D
:10018000010905810308000A00000525010103009B
:1001900011241FBECFEFD1E2DEBFCDBF12E0A0E041
:1001A000B2E0E4EDF3E102C005900D92A038B10792
:1001B000D9F712E1A0E8B2E001C01D92A83DB10755
:1001C000E1F70E942B070C94E8090C9400001F93A0
:1001D000162F2091A8022E31F9F02091A80224FFB9
:1001E00007C02091A90238E823272093A90203C061
:1001F0002AE52093A802212FDC01EAEAF2E08D91A2
:10020000819321501216DCF38AEA92E0612F0E945A
:100210007B021C5F1093A8021F9108951F93CF9338
:10022000DF936091B902635067FDD1C08091B6023F
:10023000CCE0D0E0C81BD109C354DD4F8091B5029A
:10024000803120F4CE010E94CC06BFC08D3209F06F
:10025000ABC0683009F0B9C083EC80939D028AE599
:1002600080930002109280023881832F807621F0E3
:10027000CE010E94BF0685C09A812C811092A602F1
:100280008981882399F43F71323051F4213841F447
:100290009091A80281E09E3109F080E08093A6024F
:1002A0001092A70226EA32E082E066C0813011F0A7
:1002B000833089F4992309F05CC0213809F059C0D2
:1002C000813011F48AE501C08EE18093A8028BE4AD
:1002D0008093A9024EC0853019F49093BA0249C0A8
:1002E000863071F58B81813011F0823021F4CE019E
:1002F0000E94AB0621C08330F1F4992341F484EECF
:1003000090E09093B8028093B70284E015C09130DA
:1003100041F488EE90E09093B8028093B70284E2B3
:100320000BC0923041F48CE091E09093B80280933E
:10033000B7028CE001C080E090E49093800221C07D
:10034000883081F0893019F49093BC0207C08A305C
:1003500061F08B3071F48BE48093A9028AE580937D
:10036000A80207C02CEB32E002C026EA32E081E0AE
:1003700003C026EA32E080E03093B8022093B7024F
:1003800009C08F3F39F4988197FD8E8190E8909352
:10039000800207C09F81992321F49E81981708F459
:1003A000892F8093010211C08091800287FF0DC0C8
:1003B000CE010E94CF068F3F21F48EE18093000290
:1003C00004C0882311F0109201021092B9028091AA
:1003D000000284FF5DC0809101028F3F09F458C084
:1003E000182F893008F018E0811B8093010280915A
:1003F0009D0298E8892780939D021123B9F180918D
:10040000800287FF09C08EE992E0612F0E94D10629
:10041000182F8930B8F52AC02091B7023091B80260
:10042000412F415086FF0EC050E0EA01C156DD4F1A
:10043000F901AEE9B2E084918D933196AC17BD0716
:10044000D1F70CC0D90150E0CA0181569D4FEEE9A9
:10045000F2E06D916193E817F907D9F74F5F5F4FAD
:10046000420F531F5093B8024093B7028EE992E0B7
:10047000612F0E947B021C5F1C3041F08FEF809344
:10048000010204C08FEF809301021EE1109300026D
:1004900084E199B1937049F48150D9F71092BA026E
:1004A0001092B4028AE58093A802DF91CF911F9148
:1004B0000895E9E6F0E0808183608083E89A8BE428
:1004C0008093A9028AE58093A8020895A82FB92FE6
:1004D00080E090E041E050EA609530E009C02D9165
:1004E00082279795879510F084279527305EC8F36B
:1004F0006F5FA8F30895EADF8D939D930895CF93DE
:10050000CFB7CF93DF93C395499BE9F7499B0BC0C6
:10051000499B09C0499B07C0499B05C0499B03C033
:10052000499B01C08EC06F93C091B602DD27C354B2
:10053000DD4F2F9365E5499B03C02F916F91E6CF67
:100540000F931F934F9320E040E15F9309B1037035
:1005500001FB27F93F9350E03BE039C01370406442
:100560002F77012F5F5F1EC0406819B113702F777E
:1005700052501FC0406409B12F770370D1F15F5F03
:1005800000C023C0406219B12F77137091F15F5FF3
:1005900000C025C003701027515012F45D5F0000A9
:1005A000115027952C3F19B1C8F61370012701503F
:1005B00027952C3FC8F64227499309B103701027AD
:1005C0004F73115027952C3FA8F64695469519B1C3
:1005D000137079F00127015027952C3F98F66B5A3C
:1005E00060F3315009B1B0F600C011E01CBB002728
:1005F0001CC03B503195C31BD04011E01CBB08818F
:10060000033C21F10B3411F12091B4021981110F37
:100610001213EDCF4A81441F093669F10D3211F0F2
:10062000013E29F74F7009F0042F0093BB023F9160
:100630005F914F911F910F912F916F91CCB3C0FD9E
:1006400062CFDF91CF91CFBFCF9118952091BB02A0
:10065000222369F31091B902112391F5343092F1FC
:100660003093B9022093B5021091B6023BE0311BE2
:100670003093B60227C00091B90201300CF50AE5AB
:100680004F7049F43091000234FD1DC00093000208
:10069000CDE9D2E01CC03091A80234FD14C0009313
:1006A000A802C9EAD2E013C0052710E000C000008C
:1006B0000BB91AC0052710E0221F1DC010E021C091
:1006C0004AE502C032ED432FC4E1D0E032E01AB176
:1006D0001360599A0BB11AB953E020E865E320FF83
:1006E00005270BB9279517951C3FF0F66695B8F7C7
:1006F000B1F720FF05270BB9279517951C3FD0F6BA
:100700002795179517FF052700001C3F0BB9B0F67A
:1007100029913A9519F70C7F1091BA02110FC65121
:10072000D0400BB911F01093B40211E01CBB026071
:100730001AB11C7F402F4C7F54E05A95F1F70BB94A
:100740001AB94BB974CF80917A00806480937A0093
:1007500080917A0084FFFCCF80917A008061809341
:100760007A002091780030917900C9010895ECE772
:10077000F0E0808180648083EAE7F0E08081866039
:1007800080838081806880830895FF920F931F93F8
:10079000CF93DF93EC0194E0F92E00E010E0E881C4
:1007A000F98180819A81892B80838FE193E0019781
:1007B000F1F700C00000E881F98190818A8180957D
:1007C0008923808380917C00807E80937C0080914F
:1007D0007C008F6180937C000E94A3039B819830F2
:1007E00068F080917B00886080937B0080917C0022
:1007F0009850807E982B90937C000BC080917B005A
:10080000877F80937B0080917C00807E892B809302
:100810007C000E94A303080F191FFA9409F0BFCFB0
:1008200016950795169507958C819D8108171907D0
:10083000A8F06E817F816017710798F0081B190B73
:10084000681B790B8FEF9FE70E94ED08069F9001D0
:10085000079F300D169F300D112405C020E030E0B9
:1008600002C02FEF3FE7C901DF91CF911F910F9198
:10087000FF900895483050F090917B0098609093DD
:100880007B004850462B40937C0008C090917B0031
:10089000977F90937B00642B60937C00806C8093A7
:1008A0007A0080917A0084FFFCCF2091780030910B
:1008B0007900932F80E030E0282B392BC90108956F
:1008C0003093D5022093D4024093D30260937C00EE
:1008D000EBE7F0E09081977F9083886C80937A00BB
:1008E000089510927A0008951F920F920FB60F92FA
:1008F00011242F933F934F935F936F937F938F9325
:100900009F93AF93BF93EF93FF93609178002091F3
:100910007900922F80E070E0682B792BE091D4026F
:10092000F091D502809181020995809181028F5FBB
:10093000809381029091D302891710F01092810266
:1009400090918102983068F080917B00886080935C
:100950007B0080917C009850807E982B90937C0047
:100960000BC080917B00877F80937B0080917C000F
:10097000807E892B80937C0080917A0080648093B4
:100980007A00FF91EF91BF91AF919F918F917F91ED
:100990006F915F914F913F912F910F900FBE0F90EC
:1009A0001F9018958FEF84B9809301018DB98093C2
:1009B000040187B910920A0180930B0110BA1092BA
:1009C0000701089584B5826084BD85B5856085BDC5
:1009D0008FEF87BDEEE6F0E080818260808308952E
:1009E0001F920F920FB60F9211248F9381E0809384
:1009F00082028F910F900FBE0F901F901895E0EB21
:100A0000F0E0808182608083E1EBF0E080818260B1
:100A1000808384EB8093B300E0E7F0E08081826024
:100A200080830895E8EDF2E01192119222E1E83D11
:100A3000F207D1F7A2E0B2E081E090E0ED91FD9104
:100A4000EE0FFF1FE852FD4F20813181282B392BFB
:100A500031832083880F991F22E0AA31B20771F7F2
:100A60001092D7021092D60208951F920F920FB6DD
:100A70000F9211240F931F932F933F934F935F93E4
:100A80006F937F938F939F93AF93BF93CF93DF9396
:100A9000EF93FF93E091D602F091D7023196F09355
:100AA000D702E093D602F770EE0FFF1FE852FD4F1A
:100AB000608171816115710509F446C0118210824F
:100AC000A2E0B2E021E030E080E090E0C1E0D0E0E0
:100AD000A901462357234115510571F1883091052D
:100AE00068F0EEB1AC01485050408E0102C0000FDA
:100AF000111F4A95E2F7E027EEB90AC0E5B1AE0151
:100B0000082E02C0440F551F0A94E2F7E427E5B906
:100B1000ED91FC9111974091D6025091D702E40FCC
:100B2000F51FF770EE0FFF1FE852FD4F4081518116
:100B3000422B532B51834083019612968C309105A2
:100B400019F0220F331FC4CFFF91EF91DF91CF91A6
:100B5000BF91AF919F918F917F916F915F914F91D5
:100B60003F912F911F910F910F900FBE0F901F90EB
:100B70001895FC012081828191819F7009F0EAC063
:100B8000922F9F70983039F0993009F0DEC0938130
:100B9000992309F06DC0803319F444987798D5C033
:100BA000813319F445987698D0C0823319F4469869
:100BB0007598CBC0833319F447987498C6C08433B2
:100BC00049F4809105018E7F809305018091020197
:100BD0008F77B9C0853349F4809105018D7F80936B
:100BE0000501809102018F7BAEC0863349F480916C
:100BF00005018B7F80930501809102018F7DA3C049
:100C0000873349F480910501877F809305018091A6
:100C100002018F7E98C0883349F4809105018F7E50
:100C20008093050180910201877F8DC0893349F44B
:100C3000809105018F7D80930501809102018B7F5A
:100C400082C08A3349F4809105018F7B809305012E
:100C5000809102018D7F77C08B3309F076C080913F
:100C600005018F7780930501809102018E7F6BC013
:100C7000803319F4449A779A68C0813319F4459AFD
:100C8000769A63C0823319F4469A759A5EC08333AC
:100C900019F4479A749A59C0843349F48091050134
:100CA0008160809305018091020180684CC085338A
:100CB00049F48091050182608093050180910201D1
:100CC000806441C0863349F480910501846080933B
:100CD000050180910201806236C0873349F480911A
:100CE00005018860809305018091020180612BC01D
:100CF000883349F4809105018061809305018091DA
:100D00000201886020C0893349F480910501806226
:100D10008093050180910201846015C08A3349F4F3
:100D200080910501806480930501809102018260B9
:100D30000AC08B3351F480910501806880930501CE
:100D400080910201816080930201653018F0349631
:100D5000645010CF0895FC018381813041F488E113
:100D600091E09093B8028093B70282E108958AE2FD
:100D700091E09093B8028093B70285E60895FC0154
:100D80008081982F9076903229F487FD03C081E00E
:100D900080939B028FEF08950E94B905089581E02A
:100DA000089587E00895F999FECF92BD81BD60BD99
:100DB000F894FA9AF99A7894089580E090E061E0C6
:100DC0000E94D3061092B0001092B10014BC15BC62
:100DD000EEE6F0E080818E7F8083EFE6F0E08081B8
:100DE0008E7F8083E0E7F0E080818E7F8083E1E783
:100DF000F0E080818E7F8083E2E7F0E080818E7F6B
:100E00008083E3E7F0E080818E7F8083F894EAE7D7
:100E1000F0E08081877F808380818F77808310924C
:100E2000050115B818B81BB81EB811BA14BA10923B
:100E3000020110920B0188E10FB6F89480936000D4
:100E4000109260000FBE54985C98E0911A02F091E5
:100E50001B02099508952F923F924F925F926F92D5
:100E60007F928F929F92AF92BF92CF92DF92EF923A
:100E7000FF920F931F93DF93CF93CDB7DEB7A09769
:100E80000FB6F894DEBF0FBECDBF0E94D2048CEF28
:100E90008BB91AB854985C98549A5C9A80ED8AB9C8
:100EA0000E9459020E94E2040E94FF040E9412055F
:100EB0000E94B703789410929B0233243394CC247D
:100EC000DD242E010894411C511C0BE0202E0E94B1
:100ED0000E010894C11CD11C4D9902C00E94DD0670
:100EE0009091090181E090FD80E080939C0229E8C7
:100EF000C21623E1D20608F479C08BB190E48927A9
:100F00008BB98CE192E00E94C5037C019A878987A6
:100F100084E292E00E94C5039C878B878CE292E07A
:100F20000E94C5038C019E878D8784E392E00E9416
:100F3000C503988B8F878CE392E00E94C5036C01F8
:100F40009A8B898B84E492E00E94C5039C8B8B8BE7
:100F50008CE492E00E94C5035C019E8B8D8B84E53E
:100F600092E00E94C503988F8F8B8CE592E00E94DF
:100F7000C5034C019A8F898F84E692E00E94C503D5
:100F80009C8F8B8F8CE692E00E94C5033C019E8F64
:100F90008D8F84E792E00E94C50398A38F8FFE0196
:100FA000399680E090E021913191DC01AD57BD4F41
:100FB00041E02535340718F021E02C9301C01C9244
:100FC00001968C30910579F7332071F00E0D1F1DBD
:100FD0000C0D1D1D0A0D1B1D080D191DC801860DC8
:100FE000971D0E944A093324CC24DD241CEFA12E36
:100FF0001FEFB12EB7E08B2E912CEE24FF2401E0E1
:1010000010E0A9E07A2EF0E96F2E80919C028823EF
:1010100019F006C00E940E018091A80284FFFACF49
:101020008BB180588BB9F701ED57FD4F9081D701F7
:10103000A157BD4F8C91981709F49CC080818C9367
:1010400080818130C1F58E2D8830C8F42091050152
:10105000C801082C02C0880F991F0A94E2F7282BB8
:101060002093050120910201C8010E2C02C0880FB7
:10107000991F0A94E2F7282B2093020117C08830A9
:1010800011F4479A09C0893011F4469A05C08A3094
:1010900011F4459A01C0449A2EB1C8010A2C02C02D
:1010A000880F991F0A94E2F7282B2EB979826A8259
:1010B0004FE74C833BC08E2D8830D8F4209105013A
:1010C000C801082C02C0880F991F0A94E2F7809586
:1010D00082238093050120910201C8010E2C02C0D9
:1010E000880F991F0A94E2F780958223809302016A
:1010F00018C0883011F4479809C0893011F4469817
:1011000005C08A3011F4459801C044982EB1C80139
:101110000A2C02C0880F991F0A94E2F78095822357
:101120008EB988E0898380E88A831C82882D8C5C54
:101130008B832D8220EB2E8346E44F8380918202A5
:10114000882369F01092820287E060E44CE00E94FC
:101150003A04E3E096958795EA95E1F7888781E080
:1011600080939B0280919C02882321F4C20168E055
:101170000E94E7000894E11CF11C08948108910882
:101180000894A11CB11C2CE0E216F10409F03DCF3B
:1011900080919C02882309F09ACE80918202882354
:1011A00009F495CE0E940E0110928202298240EB32
:1011B0004A8386E48B8387E060E44CE00E943A0433
:1011C00073E0969587957A95E1F78C8310929B0250
:1011D000C20164E00E94E7007ACEAA1BBB1B51E16A
:1011E00007C0AA1FBB1FA617B70710F0A61BB70B97
:1011F000881F991F5A95A9F780959095BC01CD013C
:101200000895A0E0B0E0E7E0F9E00C949709EC0164
:10121000688179818A819B816115710581059105BC
:1012200021F464E279ED8BE597E02DE133EF41E0C5
:1012300050E00E94740979018A0127EA31E440E014
:1012400050E00E9455095B016C01C801B7012CEE0A
:1012500034EF4FEF5FEF0E9455096A0D7B1D8C1D27
:101260009D1D97FF04C06150704080409048688386
:1012700079838A839B837F77CB01CDB7DEB7EAE0A2
:101280000C94B3090E94010908958CE792E00E9432
:1012900001090895A0E0B0E080937C0290937D0264
:1012A000A0937E02B0937F020895629FD001739F46
:1012B000F001829FE00DF11D649FE00DF11D929FF2
:1012C000F00D839FF00D749FF00D659FF00D992731
:1012D000729FB00DE11DF91F639FB00DE11DF91F55
:1012E000BD01CF011124089597FB092E05260ED0CC
:1012F00057FD04D04BD00AD0001C38F450954095CF
:10130000309521953F4F4F4F5F4F0895F6F79095D9
:101310008095709561957F4F8F4F9F4F08952F92C5
:101320003F924F925F926F927F928F929F92AF9275
:10133000BF92CF92DF92EF92FF920F931F93CF93C2
:10134000DF93CDB7DEB7CA1BDB0B0FB6F894DEBF59
:101350000FBECDBF09942A88398848885F846E847F
:101360007D848C849B84AA84B984C884DF80EE80C9
:10137000FD800C811B81AA81B981CE0FD11D0FB6D2
:10138000F894DEBF0FBECDBFED010895A1E21A2E85
:10139000AA1BBB1BFD010DC0AA1FBB1FEE1FFF1F19
:1013A000A217B307E407F50720F0A21BB30BE40B69
:1013B000F50B661F771F881F991F1A9469F76095B0
:1013C0007095809590959B01AC01BD01CF0108956A
:0413D000F894FFCFBF
:1013D4005AFF5B00610067006E0073007A008100B1
:1013E400890091009900A300AC0000703100010055
:1013F4000C030004310002010C0300043100040258
:101404000C030004310008030C0300043100100431
:101414000C030004310020050C03000431004006D5
:101424000C030004310080070C03000408010108C8
:101434000C030004080102090C0300040801040A57
:101444000C0300040801080B0C0300040100000055
:00000001FF
