:100000000C9472000C947C000C947C000C947C008A
:100010000C947C000C947C000C947C000C947C0070
:100020000C947C000C947C000C947C000C947C0060
:100030000C947C000C947C000C947C000C947C0050
:100040000C947C000C947C000C947C000C947C0040
:100050000C947C000C947C000C947C000C947C0030
:100060000C947C000C947C000C947C000C947C0020
:100070000C947C000C947C000C947C000C947C0010
:100080000C947C000C947C000C947C000C947C0000
:100090000C947C000C947C000C947C000C947C00F0
:1000A0000C947C000C947C000C947C000C947C00E0
:1000B0000C947C000C947C000C947C000C947C00D0
:1000C0000C947C000C947C000C947C000C947C00C0
:1000D0000C947C000C947C000C947C000C947C00B0
:1000E0000C947C0011241FBECFEFD1E2DEBFCDBF48
:1000F0000E9415010C9439010C9400008FEF84B913
:1001000083BB809301018DB980930A011092040191
:100110008093050181B98FE087B980EF88B9089590
:1001200084B5836A84BD85B5856085BD82E487BD5D
:1001300086E488BDE0E8F0E08081826A8083E1E8BF
:10014000F0E080818A6180838FEF9FEF909387003A
:100150008093860028EB3BE330938900209388004E
:1001600024E335E330938B0020938A00E0EBF0E04A
:100170002081236A2083E1EBF0E020812760208347
:100180002EE52093B30020E72093B400E0E9F0E0EF
:100190002081226A2083E1E9F0E020812A61208326
:1001A000909397008093960028E332E33093990070
:1001B000209398002DEB3CE230939B0020939A0013
:1001C000E0EAF0E02081226A2083E1EAF0E0208189
:1001D0002A6120839093A7008093A6002AE33AE245
:1001E0003093A9002093A8002BED37E23093AB00A9
:1001F0002093AA00E0E2F1E02081226A2083E1E27C
:10020000F1E020812A6120839093270180932601C9
:100210008EE995E2909329018093280182EA9FE17B
:1002200090932B0180932A0108950E947E000E94E2
:100230009000E3E0F1E028E091E0808180FD04C0DF
:1002400088B1892788B905C0349903C088B182274D
:1002500088B982B1892782B982B1805882B93FEFCB
:1002600049E688E1315040408040E1F700C000009D
:06027000E4CFF894FFCF7B
:00000001FF
