:100000000C94CC000C9483020C94E9000C94E9004D
:100010000C94E9000C94E9000C94E9000C94E900BC
:100020000C94E9000C94E9000C94E9000C94E900AC
:100030000C94E9000C94E9000C94E9000C94E9009C
:100040000C94E9000C94E9000C94E9000C94E9008C
:100050000C94E9000C94E9000C94E9000C94E9007C
:100060000C94E9000C94E9000C94E9000C94E9006C
:100070000C94E9000C94E9000C94E9000C94E9005C
:100080000C94E9000C94E9000C94E9000C94E9004C
:100090000C94E9000C94E9000C94E9000C94E9003C
:1000A0000C94E9000C94E9000C94E9000C94E9002C
:1000B0000C94E9000C94E9000C94E9000C94E9001C
:1000C0000C94E9000C94E9000C94E9000C94E9000C
:1000D0000C94E9000C94E9000C94E9000C94E900FC
:1000E0000C94E900040309042203770077007700E9
:1000F0002E00630072007900700074006F006D00C4
:10010000790073002E0064006500160356002D0070
:100110005500530042002D004D00490044004900A5
:100120001201100100000008C016E40501000102E0
:1001300000010902650002010000FA090400000044
:100140000101000009240100010900010109040165
:1001500000020103000007240100014100062402FF
:100160000101000624020202000924030103010226
:10017000010009240302040101010009050103082B
:10018000000A000005250101010905810308000A94
:10019000000005250101030011241FBECFEFD1E2AD
:1001A000DEBFCDBF12E0A0E0B2E0EAEEF7E002C0B1
:1001B00005900D92A230B107D9F712E0A2E0B2E0AB
:1001C00001C01D92AA33B107E1F70E94D5030C9438
:1001D000F3030C9400001F93162F20910F022E3171
:1001E000F9F020910F0224FF07C02091100238E897
:1001F00023272093100203C02AE520930F02212F0A
:10020000DC01E1E1F2E08D91819321501216DCF3E3
:1002100081E192E0612F0E947F021C5F10930F0228
:100220001F9108951F93CF93DF9360912002635035
:1002300067FDD1C080911D02CCE0D0E0C81BD10980
:10024000CC5DDD4F80911C02803120F4CE010E94F4
:10025000D403BFC08D3209F0ABC0683009F0B9C01B
:1002600083EC809304028AE58093000210920202DC
:100270003881832F807621F0CE010E94BB0385C098
:100280009A812C8110920D028981882399F43F7103
:10029000323051F4213841F490910F0281E09E31C7
:1002A00009F080E080930D0210920E022DE032E002
:1002B00082E066C0813011F0833089F4992309F01F
:1002C0005CC0213809F059C0813011F48AE501C0C1
:1002D0008EE180930F028BE4809310024EC0853034
:1002E00019F49093210249C0863071F58B818130D9
:1002F00011F0823021F4CE010E94A70321C0833087
:10030000F1F4992341F484EE90E090931F028093DE
:100310001E0284E015C0913041F488EE90E0909385
:100320001F0280931E0282E20BC0923041F48AE0E9
:1003300091E090931F0280931E0286E101C080E04D
:1003400090E49093020221C0883081F0893019F442
:100350009093230207C08A3061F08B3071F48BE4F4
:10036000809310028AE580930F0207C023E232E0F7
:1003700002C02DE032E081E003C02DE032E080E0F9
:1003800030931F0220931E0209C08F3F39F49881D9
:1003900097FD8E8190E89093020207C09F81992378
:1003A00021F49E81981708F4892F8093010211C0CF
:1003B0008091020287FF0DC0CE010E94D2038F3FC1
:1003C00021F48EE18093000204C0882311F0109282
:1003D0000102109220028091000284FF5DC0809192
:1003E00001028F3F09F458C0182F893008F018E037
:1003F000811B809301028091040298E889278093F1
:1004000004021123B9F18091020287FF09C085E03F
:1004100092E0612F0E94C803182F8930B8F52AC0D6
:1004200020911E0230911F02412F415086FF0EC0C5
:1004300050E0EA01CA5FDD4FF901A5E0B2E0849126
:100440008D933196AC17BD07D1F70CC0D90150E0A0
:10045000CA018A5F9D4FE5E0F2E06D916193E81774
:10046000F907D9F74F5F5F4F420F531F50931F0299
:1004700040931E0285E092E0612F0E947F021C5F84
:100480001C3041F08FEF8093010204C08FEF809306
:1004900001021EE11093000284E199B1937049F4C6
:1004A0008150D9F71092210210921B028AE58093A5
:1004B0000F02DF91CF911F910895E9E6F0E080816E
:1004C00083608083E89A8BE4809310028AE58093AE
:1004D0000F020895A82FB92F80E090E041E050EA84
:1004E000609530E009C02D9182279795879510F08F
:1004F00084279527305EC8F36F5FA8F30895EADF7D
:100500008D939D930895CF93CFB7CF93DF93C395EA
:10051000499BE9F7499B0BC0499B09C0499B07C010
:10052000499B05C0499B03C0499B01C08EC06F9386
:10053000C0911D02DD27CC5DDD4F2F9365E5499B02
:1005400003C02F916F91E6CF0F931F934F9320E03D
:1005500040E15F9309B1037001FB27F93F9350E03D
:100560003BE039C0137040642F77012F5F5F1EC0DE
:10057000406819B113702F7752501FC0406409B101
:100580002F770370D1F15F5F00C023C0406219B1C3
:100590002F77137091F15F5F00C025C003701027A3
:1005A000515012F45D5F0000115027952C3F19B196
:1005B000C8F613700127015027952C3FC8F6422733
:1005C000499309B1037010274F73115027952C3FA1
:1005D000A8F64695469519B1137079F00127015098
:1005E00027952C3F98F66B5A60F3315009B1B0F65D
:1005F00000C011E01CBB00271CC03B503195C31B41
:10060000D04011E01CBB0881033C21F10B3411F1F7
:1006100020911B021981110F1213EDCF4A81441F43
:10062000093669F10D3211F0013E29F74F7009F0DA
:10063000042F009322023F915F914F911F910F91E0
:100640002F916F91CCB3C0FD62CFDF91CF91CFBF1F
:10065000CF91189520912202222369F31091200254
:10066000112391F5343092F13093200220931C0233
:1006700010911D023BE0311B30931D0227C00091F9
:10068000200201300CF50AE54F7049F43091000268
:1006900034FD1DC000930002C4E0D2E01CC03091C4
:1006A0000F0234FD14C000930F02C0E1D2E013C06A
:1006B000052710E000C000000BB91AC0052710E0A4
:1006C000221F1DC010E021C04AE502C032ED432FB9
:1006D000C4E1D0E032E01AB11360599A0BB11AB9F3
:1006E00053E020E865E320FF05270BB92795179510
:1006F0001C3FF0F66695B8F7B1F720FF05270BB958
:10070000279517951C3FD0F62795179517FF0527B6
:1007100000001C3F0BB9B0F629913A9519F70C7FF0
:1007200010912102110FC651D0400BB911F0109356
:100730001B0211E01CBB02601AB11C7F402F4C7FD2
:1007400054E05A95F1F70BB91AB94BB974CFFC01C3
:100750008381813041F480E291E090931F02809385
:100760001E0282E1089582E391E090931F0280933C
:100770001E0285E60895FC018081982F90769032C4
:1007800029F487FD03C081E0809303028FEF089571
:10079000FC01108211821282138214821582168249
:1007A00087E0089581E0089508952EE088E190E0C3
:1007B0000FB6F894A895809360000FBE2093600058
:1007C0008CEF8BB91AB854985C98549A5C9A8FEF56
:1007D00082B911B888B987B9789410920302A895A4
:0A07E0000E941201FCCFF894FFCF35
:0207EA005AFFB4
:00000001FF
