:100000000C94C9000C9480020C94E6000C94E60059
:100010000C94E6000C94E6000C94E6000C94E600C8
:100020000C94E6000C94E6000C94E6000C94E600B8
:100030000C94E6000C9436050C94E6000C94E60053
:100040000C94E6000C94E6000C94E6000C94E60098
:100050000C94E6000C94F1040C94E6000C94E60079
:100060000C94E6000C94E6000C94E6000C94E60078
:100070000C94E6000C9475040C94E6000C94E600D5
:100080000C94E6000C94E6000C94E6000C94E60058
:100090000C94E6000C94E6000C94E6000C94E60048
:1000A0000C94E6000C94E6000C94E6000C94E60038
:1000B0000C94E6000C94E6000C94E6000C94E60028
:1000C0000C94E6000C94E6000C94E6000C94E60018
:1000D0000C94E6000C94E6000C94E6000C94E60008
:1000E0000C94E60004030904240377006F007200F7
:1000F0006B0069006E00700072006F006700720094
:100100006500730073002E00630061000E03700031
:100110006800690062006F007700120110010000A2
:100120000008C016E4050100010200010902650093
:1001300002010000FA090400000001010000092486
:10014000010001090001010904010002010300008E
:1001500007240100014100062402010100062402D7
:100160000202000924030103010201000924030221
:1001700004010101000905010308000A000005252A
:100180000101010905810308000A0000052501019C
:10019000030011241FBECFEFD1E2DEBFCDBF12E0BE
:1001A000A0E0B2E0E0EEF3E102C005900D92AC37C2
:1001B000B107D9F712E1ACE7B2E001C01D92A43D4E
:1001C000B107E1F70E9439070C94EE090C94000086
:1001D0001F93162F2091A4022E31F9F02091A40232
:1001E00024FF07C02091A50238E823272093A50209
:1001F00003C02AE52093A402212FDC01E6EAF2E005
:100200008D91819321501216DCF386EA92E0612FE2
:100210000E947C021C5F1093A4021F9108951F93FB
:10022000CF93DF936091B502635067FDD1C0809199
:10023000B202CCE0D0E0C81BD109C754DD4F809199
:10024000B102803120F4CE010E94CD06BFC08D32B4
:1002500009F0ABC0683009F0B9C083EC8093990213
:100260008AE58093000210927C023881832F807689
:1002700021F0CE010E94C00685C09A812C81109287
:10028000A2028981882399F43F71323051F42138D8
:1002900041F49091A40281E09E3109F080E08093C6
:1002A000A2021092A30222EA32E082E066C081300C
:1002B00011F0833089F4992309F05CC0213809F0EA
:1002C00059C0813011F48AE501C08EE18093A40207
:1002D0008BE48093A5024EC0853019F49093B6024A
:1002E00049C0863071F58B81813011F0823021F464
:1002F000CE010E94AC0621C08330F1F4992341F471
:1003000084EE90E09093B4028093B30284E015C031
:10031000913041F488EE90E09093B4028093B30260
:1003200084E20BC0923041F48CE091E09093B402EF
:100330008093B3028EE001C080E090E490937C0251
:1003400021C0883081F0893019F49093B80207C039
:100350008A3061F08B3071F48BE48093A5028AE5DA
:100360008093A40207C028EB32E002C022EA32E008
:1003700081E003C022EA32E080E03093B4022093AF
:10038000B30209C08F3F39F4988197FD8E8190E8C0
:1003900090937C0207C09F81992321F49E81981736
:1003A00008F4892F8093010211C080917C0287FF9D
:1003B0000DC0CE010E94D0068F3F21F48EE18093C4
:1003C000000204C0882311F0109201021092B502BD
:1003D0008091000284FF5DC0809101028F3F09F48B
:1003E00058C0182F893008F018E0811B8093010253
:1003F0008091990298E88927809399021123B9F195
:1004000080917C0287FF09C08AE992E0612F0E94F7
:10041000D206182F8930B8F52AC02091B302309146
:10042000B402412F415086FF0EC050E0EA01C5568C
:10043000DD4FF901AAE9B2E084918D933196AC17B2
:10044000BD07D1F70CC0D90150E0CA0185569D4FB8
:10045000EAE9F2E06D916193E817F907D9F74F5F88
:100460005F4F420F531F5093B4024093B3028AE987
:1004700092E0612F0E947C021C5F1C3041F08FEFE4
:100480008093010204C08FEF809301021EE110935C
:10049000000284E199B1937049F48150D9F7109228
:1004A000B6021092B0028AE58093A402DF91CF9148
:1004B0001F910895E9E6F0E0808183608083E89AE7
:1004C0008BE48093A5028AE58093A4020895A82F67
:1004D000B92F80E090E041E050EA609530E009C03B
:1004E0002D9182279795879510F084279527305E68
:1004F000C8F36F5FA8F30895EADF8D939D93089585
:10050000CF93CFB7CF93DF93C395499BE9F7499B2F
:100510000BC0499B09C0499B07C0499B05C0499B2B
:1005200003C0499B01C08EC06F93C091B202DD270A
:10053000C754DD4F2F9365E5499B03C02F916F9101
:10054000E6CF0F931F934F9320E040E15F9309B1F3
:10055000037001FB27F93F9350E03BE039C0137073
:1005600040642F77012F5F5F1EC0406819B1137080
:100570002F7752501FC0406409B12F770370D1F11B
:100580005F5F00C023C0406219B12F77137091F1F3
:100590005F5F00C025C003701027515012F45D5FEB
:1005A0000000115027952C3F19B1C8F61370012790
:1005B000015027952C3FC8F64227499309B1037093
:1005C00010274F73115027952C3FA8F64695469556
:1005D00019B1137079F00127015027952C3F98F637
:1005E0006B5A60F3315009B1B0F600C011E01CBB8A
:1005F00000271CC03B503195C31BD04011E01CBBF1
:100600000881033C21F10B3411F12091B0021981D2
:10061000110F1213EDCF4A81441F093669F10D32D3
:1006200011F0013E29F74F7009F0042F0093B70233
:100630003F915F914F911F910F912F916F91CCB38B
:10064000C0FD62CFDF91CF91CFBFCF9118952091A0
:10065000B702222369F31091B502112391F53430CA
:1006600092F13093B5022093B1021091B2023BE0B7
:10067000311B3093B20227C00091B50201300CF556
:100680000AE54F7049F43091000234FD1DC000931B
:100690000002C9E9D2E01CC03091A40234FD14C0AC
:1006A0000093A402C5EAD2E013C0052710E000C001
:1006B00000000BB91AC0052710E0221F1DC010E072
:1006C00021C04AE502C032ED432FC4E1D0E032E060
:1006D0001AB11360599A0BB11AB953E020E865E3D7
:1006E00020FF05270BB9279517951C3FF0F6669557
:1006F000B8F7B1F720FF05270BB9279517951C3FD1
:10070000D0F62795179517FF052700001C3F0BB95A
:10071000B0F629913A9519F70C7F1091B602110F96
:10072000C651D0400BB911F01093B00211E01CBBC0
:1007300002601AB11C7F402F4C7F54E05A95F1F7AC
:100740000BB91AB94BB974CF80917A008064809349
:100750007A0080917A0084FFFCCF80917A008061DA
:1007600080937A002091780030917900C901089532
:10077000ECE7F0E0808180648083EAE7F0E080814C
:10078000866080838081806880830895FF920F93C4
:100790001F93CF93DF93EC0194E0F92E00E010E07B
:1007A000E881F98180819A81892B80838FE193E0B0
:1007B0000197F1F700C00000E881F98190818A81FA
:1007C00080958923808380917C00807E80937C004B
:1007D00080917C008F6180937C000E94A4039B81A8
:1007E000983068F080917B00886080937B008091D6
:1007F0007C009850807E982B90937C000BC0809159
:100800007B00877F80937B0080917C00807E892B9A
:1008100080937C000E94A403080F191FFA9409F02A
:10082000BFCF16950795169507958C819D81081762
:100830001907A8F06E817F816017710798F0081B77
:10084000190B681B790B8FEF9FE70E94DA09069F4F
:100850009001079F300D169F300D112405C020E038
:1008600030E002C02FEF3FE7C901DF91CF911F9128
:100870000F91FF900895483050F090917B00986060
:1008800090937B004850462B40937C0008C0909189
:100890007B00977F90937B00642B60937C00806C3F
:1008A00080937A0080917A0084FFFCCF20917800B9
:1008B00030917900932F80E030E0282B392BC9014B
:1008C00008953093D1022093D0024093CF026093D9
:1008D0007C00EBE7F0E09081977F9083886C8093B9
:1008E0007A00089510927A0008951F920F920FB621
:1008F0000F9211242F933F934F935F936F937F93A6
:100900008F939F93AF93BF93EF93FF936091780082
:1009100020917900922F80E070E0682B792BE09194
:10092000D002F091D10280917D02099580917D02E3
:100930008F5F80937D029091CF02891710F0109203
:100940007D0290917D02983068F080917B008860F4
:1009500080937B0080917C009850807E982B9093B0
:100960007C000BC080917B00877F80937B0080910F
:100970007C00807E892B80937C0080917A0080644B
:1009800080937A00FF91EF91BF91AF919F918F91EA
:100990007F916F915F914F913F912F910F900FBE7B
:1009A0000F901F9018958FEF84B9809301018DB936
:1009B0008093040187B910920A0180930B0110BA49
:1009C00010920701089584B5826084BD85B5856065
:1009D00085BD8FEF87BDEEE6F0E080818260808389
:1009E00008951F920F920FB60F9211248F9381E0FA
:1009F00080937E028F910F900FBE0F901F901895DD
:100A0000E0EBF0E0808182608083E1EBF0E08081C8
:100A10008260808384EB8093B300E0E7F0E0808124
:100A2000826080830895E4EDF2E01192119222E158
:100A3000E43DF207D1F7A2E0B2E081E090E0ED9171
:100A4000FD91EE0FFF1FEC52FD4F20813181282BCD
:100A5000392B31832083880F991F22E0AA31B207F6
:100A600071F71092D3021092D20208951F920F9242
:100A70000FB60F9211240F931F932F933F934F9311
:100A80005F936F937F938F939F93AF93BF93CF9316
:100A9000DF93EF93FF93E091D202F091D30231966E
:100AA000F093D302E093D202F770EE0FFF1FEC52E7
:100AB000FD4F608171816115710509F446C0118295
:100AC0001082A2E0B2E021E030E080E090E0C1E0FE
:100AD000D0E0A901462357234115510571F1883013
:100AE000910568F0EEB1AC01485050408E0102C053
:100AF000000F111F4A95E2F7E027EEB90AC0E5B1F1
:100B0000AE01082E02C0440F551F0A94E2F7E427F5
:100B1000E5B9ED91FC9111974091D2025091D30229
:100B2000E40FF51FF770EE0FFF1FEC52FD4F4081F1
:100B30005181422B532B51834083019612968C3066
:100B4000910519F0220F331FC4CFFF91EF91DF9170
:100B5000CF91BF91AF919F918F917F916F915F9155
:100B60004F913F912F911F910F910F900FBE0F90BA
:100B70001F901895FC012081828191819F7009F05E
:100B8000EAC0922F9F70983039F0993009F0DEC09A
:100B90009381992309F06DC0803319F444987798B4
:100BA000D5C0813319F445987698D0C0823319F4B2
:100BB00046987598CBC0833319F447987498C6C08B
:100BC000843349F4809105018E7F809305018091E3
:100BD00002018F77B9C0853349F4809105018D7F7B
:100BE00080930501809102018F7BAEC0863349F46A
:100BF000809105018B7F80930501809102018F7D9B
:100C0000A3C0873349F480910501877F8093050154
:100C1000809102018F7E98C0883349F4809105014C
:100C20008F7E8093050180910201877F8DC089337B
:100C300049F4809105018F7D809305018091020127
:100C40008B7F82C08A3349F4809105018F7B80932A
:100C50000501809102018D7F77C08B3309F076C04A
:100C6000809105018F7780930501809102018E7F2D
:100C70006BC0803319F4449A779A68C0813319F4B1
:100C8000459A769A63C0823319F4469A759A5EC083
:100C9000833319F4479A749A59C0843349F4809184
:100CA00005018160809305018091020180684CC03C
:100CB000853349F48091050182608093050180911C
:100CC0000201806441C0863349F48091050184604B
:100CD0008093050180910201806236C0873349F418
:100CE00080910501886080930501809102018061F7
:100CF0002BC0883349F48091050180618093050100
:100D000080910201886020C0893349F480910501F7
:100D100080628093050180910201846015C08A334E
:100D200049F480910501806480930501809102015E
:100D300082600AC08B3351F48091050180688093F2
:100D4000050180910201816080930201653018F0F5
:100D50003496645010CF0895FC018381813041F4B2
:100D60008AE191E09093B4028093B30282E1089506
:100D70008CE291E09093B4028093B30285E60895EB
:100D8000FC018081982F9076903229F487FD03C072
:100D900081E0809398028FEF08950E94BA0508952C
:100DA00081E0089587E00895F999FECF92BD81BD55
:100DB00060BDF894FA9AF99A7894089580E090E0EA
:100DC00061E00E94D4061092B0001092B10014BCF1
:100DD00015BCEEE6F0E080818E7F8083EFE6F0E0E8
:100DE00080818E7F8083E0E7F0E080818E7F80834A
:100DF000E1E7F0E080818E7F8083E2E7F0E08081B0
:100E00008E7F8083E3E7F0E080818E7F8083F8949B
:100E1000EAE7F0E08081877F808380818F7780831D
:100E20001092050115B818B81BB81EB811BA14BA3B
:100E30001092020110920B0188E10FB6F894809392
:100E40006000109260000FBE54985C98E0911A0206
:100E5000F0911B0209950895479846984598449843
:100E600077987698759874981092050110920201FF
:100E700008952F923F924F925F926F927F928F923E
:100E80009F92AF92BF92CF92DF92EF92FF920F9319
:100E90001F93DF93CF9300D000D0CDB7DEB70E9471
:100EA000D3048CEF8BB91AB854985C98549A5C9A16
:100EB00080ED8AB90E945A020E94E3040E94000554
:100EC0000E9413050E94B803789400E010E0992472
:100ED00093942E010894411C511C91E0E92EF12CB1
:100EE00088E0382EB0E82B2E0F5F1F4F80919702BD
:100EF000882311F40E940F014D9902C00E94DE0662
:100F00009091090181E090FD80E080939702043682
:100F1000110571F48CE192E00E94C60321E0853551
:100F2000920718F090927F02D2C010927F02CFC039
:100F3000083C110571F484E292E00E94C60321E0AE
:100F40008535920718F090928002C1C010928002FD
:100F5000BEC081E00C32180771F48CE292E00E946E
:100F6000C60321E08535920718F090928102AFC048
:100F700010928102ACC081E00039180771F484E35B
:100F800092E00E94C60321E08535920718F0909206
:100F900082029DC0109282029AC081E0043F18072D
:100FA00071F48CE392E00E94C60321E0853592073C
:100FB00018F0909283028BC01092830288C082E066
:100FC0000835180771F484E492E00E94C60321E01A
:100FD0008535920718F09092840279C010928402AD
:100FE00076C082E00C3B180771F48CE492E00E941A
:100FF000C60321E08535920718F09092850267C0FC
:101000001092850264C083E00032180771F484E511
:1010100092E00E94C60321E08535920718F0909275
:10102000860255C01092860252C083E00438180729
:1010300071F48CE592E00E94C60321E085359207A9
:1010400018F09092870243C01092870240C083E05C
:10105000083E180771F484E692E00E94C60321E07E
:101060008535920718F09092880231C0109288025C
:101070002EC084E0003B180771F48CE692E00E94D9
:10108000C60321E08535920718F0909289021FC0AF
:10109000109289021CC085E00431180771F484E7BE
:1010A00092E00E94C60321E08535920718F09092E5
:1010B0008A020DC010928A020AC085E0093718071B
:1010C00030F08BB190E489278BB900E010E0ACEFF1
:1010D000AA2EAFEFBA2EF7E06F2E712CCC24DD24B0
:1010E000EFE78E2E8BB180588BB9F601E158FD4F9A
:1010F0009081D601A557BD4F8C91981709F48BC0EC
:1011000080818C9380818130C9F58C2D8830C8F422
:1011100020910501C701062C02C0880F991F0A946F
:10112000E2F7282B2093050120910201C7010C2C26
:1011300002C0880F991F0A94E2F7282B209302011E
:1011400017C0883011F4479A09C0893011F4469AC3
:1011500005C08A3011F4459A01C0449A2EB1C701E6
:101160000A2C02C0880F991F0A94E2F7282B2EB987
:1011700029E0298380E98A838C8239C08C2D8830CC
:10118000D8F420910501C701062C02C0880F991FD1
:101190000A94E2F780958223809305012091020151
:1011A000C7010C2C02C0880F991F0A94E2F78095A2
:1011B00082238093020118C0883011F4479809C037
:1011C000893011F4469805C08A3011F4459801C061
:1011D00044982EB1C7010A2C02C0880F991F0A94A7
:1011E000E2F7809582238EB939822A821C82862D6D
:1011F0008C5C8B831092980280919702882319F05F
:101200000AC00E940F018091A40284FFFACFC2019C
:1012100064E00E94E8000894C11CD11C0894610895
:1012200071080894A11CB11C2CE0C216D10409F06D
:1012300059CF80917E02882309F456CE10927E0207
:101240008BE0898380EB8A8386E48B8387E060E48C
:101250004CE00E943B0473E0969587957A95E1F700
:101260008C831092980280919702882319F00AC00B
:101270000E940F018091A40284FFFACFC20164E0B2
:101280000E94E8008C81982F9150993038F40E9488
:101290002C07449A779A469A759A11C0982F9B50BA
:1012A000993038F40E942C07459A769A479A749A96
:1012B0001BCE982F9551993058F40E942C0780919D
:1012C000050181608093050180910201806868C0FA
:1012D000982F9F51993058F40E942C078091050156
:1012E00082608093050180910201806459C0982F2B
:1012F0009952993058F40E942C078091050184601E
:10130000809305018091020180624AC0982F935317
:10131000993058F40E942C078091050188608093D1
:1013200005018091020180613BC0982F9D53993047
:1013300058F40E942C07809105018061809305017B
:101340008091020188602CC0982F9754993058F4EE
:101350000E942C0780910501806280930501809195
:10136000020184601DC0982F9155993058F40E9455
:101370002C07809105018064809305018091020112
:1013800082600EC0982F9B55993068F40E942C07FC
:101390008091050180688093050180910201816040
:1013A00080930201A1CD85568F3008F09DCD0E941B
:1013B0002C079ACDAA1BBB1B51E107C0AA1FBB1F5C
:1013C000A617B70710F0A61BB70B881F991F5A95D1
:1013D000A9F780959095BC01CD010895F894FFCFB1
:1013E0005AFF5B00610067006E0073007A008100A5
:1013F000890091009900A300AC0000703100010049
:101400000C030004310002010C030004310004024B
:101410000C030004310008030C0300043100100425
:101420000C030004310020050C03000431004006C9
:101430000C030004310080070C03000408010108BC
:101440000C030004080102090C0300040801040A4B
:0C1450000C0300040801080B0C0300044E
:00000001FF
