:100000000C9472000C9487000C9487000C94870069
:100010000C9487000C9487000C9487000C94870044
:100020000C9487000C9487000C9487000C94870034
:100030000C9487000C9487000C9487000C94870024
:100040000C9487000C9487000C9487000C94870014
:100050000C9487000C9487000C9487000C94870004
:100060000C9487000C9487000C9487000C948700F4
:100070000C9487000C9487000C9487000C948700E4
:100080000C9487000C9487000C9487000C948700D4
:100090000C9487000C9487000C9487000C948700C4
:1000A0000C9487000C9487000C9487000C948700B4
:1000B0000C9487000C9487000C9487000C948700A4
:1000C0000C9487000C9487000C9487000C94870094
:1000D0000C9487000C9487000C9487000C94870084
:1000E0000C94870011241FBECFEFD1E2DEBFCDBF3D
:1000F00012E0A0E0B2E0EEE7F2E002C005900D925F
:10010000A831B107D9F70E948F000C943D010C94DF
:1001100000008FEF8AB90E94C60078940895CF93AB
:10012000DF930E94890080E092E00E94D400EC01FD
:1001300088E092E00E94D40080E192E00E94D40026
:1001400083E0C731D80710F05F98EDCF5F9AEBCF0F
:10015000ECE7F0E09081907E908390818F71892B05
:100160008083089580917A00806480937A008091E2
:100170007A0084FFFCCF80917A00806180937A00BE
:100180002091780030917900C9010895ECE7F0E002
:10019000808180648083EAE7F0E0808186608083EC
:1001A0008081806880830895FF920F931F93CF937F
:1001B000DF93EC0194E0F92E00E010E0E881F98192
:1001C00080819A81892B80838FE99FE00197F1F7E5
:1001D00000C00000E881F98190818A81809589239F
:1001E00080838FE10E94A8000E94B2008B810E9450
:1001F000A8000E94B200080F191FFA94F9F616958C
:100200000795169507958C819D8108171907A8F009
:100210006E817F816017710798F0081B190B681BAE
:10022000790B8FEF9FE70E942901069F9001079F9E
:10023000300D169F300D112405C020E030E002C0C3
:100240002FEF3FE7C901DF91CF911F910F91FF90F1
:100250000895AA1BBB1B51E107C0AA1FBB1FA6170D
:10026000B70710F0A61BB70B881F991F5A95A9F75F
:0E02700080959095BC01CD010895F894FFCFC4
:10027E0031008007BC02000431004006F401200367
:08028E003100200508023403D1
:00000001FF
